:100000000C94670C0C94980C0C94980C0C94980C11
:100010000C94980C0C94980C0C94980C0C94980CD0
:100020000C94980C0C94980C0C94980C0C94980CC0
:100030000C94980C0C94980C0C94980C0C94980CB0
:100040000C94980C0C940B360C94980C0C94980C03
:100050000C94980C0C94980C0C949D4C0C94704B34
:100060000C94980C0C9418420C94980C0C94980CCA
:100070000C94980C0C94980C0C94980C0C94980C70
:100080000C94980C0C94980C0C94980C0C94980C60
:100090000C94980C0C94980C0C94980C0C94980C50
:1000A0000C94980C0C94980C0C94980C0C94980C40
:1000B0000C94980C0C94980C0C94980C0C94980C30
:1000C0000C94980C0C94980C0C94980C0C94980C20
:1000D0000C94980C0C94980C0C94980C0C94980C10
:1000E0000C94980C1C481F480E4812481848564853
:1000F000234827482D48314835483B483F48434826
:10010000564849484D4851488C4A914A964AA04A17
:10011000AA4A234BB44ABC4AC44ACE4AD84AE24A05
:10012000F14AFB4A234B054B0F4B194B084AD73B6F
:100130003BCE016E84BCBFFDC12F3D6C74319ABDB6
:1001400056833DDA3D00C77F11BED9E4BB4C3E91DA
:100150006BAAAABE000000803F05A84CCDB2D44EC9
:10016000B93836A9020C50B9918688083CA6AAAACB
:100170002ABE000000803F004E414E494E4954596E
:10018000494E46CDCCCC3D0AD7233C17B7D1387762
:10019000CC2B329595E6241FB14F0A000020410078
:1001A00000C84200401C4620BCBE4CCA1B0E5AAEC2
:1001B000C59D74434F4D4D554E49434154494F4E93
:1001C0000044525952554E004552524F5253004925
:1001D0004E464F004543484F0020746F6F206C6FB0
:1001E0006E6720657874727573696F6E20707265C2
:1001F00076656E7465640A0020636F6C64206578B0
:1002000074727573696F6E2070726576656E746551
:10021000640A0047322F47332062616420706172A4
:10022000616D65746572730A000000484200004801
:100230004200008040000000005761726E696E67E6
:100240003A20486F6D696E672042756D7020446971
:100250007669736F72203C20310A000202040000AC
:10026000A0400000A040000000400000F04200005C
:10027000F042000020432569730025696D2025693F
:1002800073002569682025696D202569730025693B
:1002900064202569682025696D202569730025691A
:1002A0007920256964202569682025696D202569E4
:1002B00073005072696E742074696D653A2000D4C1
:1002C00001CF01C801C101B3016F66660044454218
:1002D00055473A004B494C4C45442E20004D313196
:1002E000332053006F6B0020573A00544845524D5D
:1002F000414C5F50524F54454354494F4E00415575
:10030000544F5245504F52545F53445F53544154DD
:10031000555300454D455247454E43595F50415254
:1003200053455200434153455F4C494748545F424F
:1003300052494748544E45535300544F47474C4544
:100340005F4C494748545300534F46545741524518
:100350005F504F574552004255494C445F504552FB
:1003600043454E54004C4556454C494E475F444129
:100370005441005A5F50524F4245004155544F4C32
:100380004556454C005052494E545F4A4F4200502A
:10039000524F4752455353004155544F5245504FC9
:1003A00052545F54454D5000564F4C554D45545294
:1003B000494300454550524F4D0053455249414C29
:1003C0005F584F4E5F584F4646004649524D574181
:1003D00052455F4E414D453A4D61726C696E203118
:1003E0002E312E3920284769746875622920534FB1
:1003F000555243455F434F44455F55524C3A6874EC
:100400007470733A2F2F6769746875622E636F6D0D
:100410002F4D61726C696E4669726D776172652FDE
:100420004D61726C696E2050524F544F434F4C5F78
:1004300056455253494F4E3A312E30204D41434894
:10044000494E455F545950453A3344205072696EC5
:100450007465722045585452554445525F434F5578
:100460004E543A3120555549443A636564653261CA
:1004700032662D343161322D343734382D396231C2
:10048000322D6335356336326633363766660A0099
:100490002F2F20007A5F6D696E3A20005265706FD1
:1004A0007274696E6720656E6473746F7020737404
:1004B000617475730A002054002052004163636523
:1004C0006C65726174696F6E3A20500020666972C3
:1004D00073740A005A0059005800486F6D65200077
:1004E000000070C2000070C200000000546F6F2056
:1004F0006661722066726F6D207265666572656EE8
:10050000636520706F696E740A00FFFFFF205A0058
:10051000205900580020204D61783A2000205A00D0
:10052000205900580020204D696E3A20004F6E205F
:10053000004F666600536F667420656E6473746F57
:1005400070733A200020466C6F773A200000012932
:100550000504FFFFFFFFFF270504FFFFFFFFFF1854
:10056000162019FFFFFFFFFFFFFF08FFFFFFFF251A
:100570000504FFFFFF08440BFF4120643A00206997
:100580003A0020703A00496E76616C6964206578A3
:100590007472756465720A0043290A0061626C65B1
:1005A0006420286D696E2074656D702000436F6C47
:1005B00064206578747275646573206172652000CB
:1005C00023646566696E652044454641554C545F19
:1005D0004B64200023646566696E6520444546418E
:1005E000554C545F4B69200023646566696E652035
:1005F00044454641554C545F4B70200050494420BF
:100600004175746F74756E652066696E697368658F
:1006100064212050757420746865206C61737420A7
:100620004B702C204B6920616E64204B6420636FFB
:100630006E7374616E74732066726F6D2062656C88
:100640006F7720696E746F20436F6E66696775728D
:100650006174696F6E2E680A0050494420417574B8
:100660006F74756E65206661696C656421207469BC
:100670006D656F75740A00453120544845524D41EF
:100680004C2052554E4157415900546865726D6176
:100690006C2052756E617761790045312048656143
:1006A00074696E67206661696C6564004865617491
:1006B000696E67206661696C656400504944204139
:1006C00075746F74756E65206661696C6564212050
:1006D00054656D706572617475726520746F6F20FA
:1006E000686967680A00204B643A2000204B693A29
:1006F0002000204B703A20000A20436C617373691C
:100700006320504944200A002054753A2000204BB1
:10071000753A2000206D61783A2000206D696E3AAC
:10072000200020643A200020626961733A20005062
:100730004944204175746F74756E65206661696CFB
:100740006564212042616420657874727564657205
:10075000206E756D6265720A0050494420417574BF
:100760006F74756E652073746172740A004E6F2029
:1007700063617365206C696768740A00454550526F
:100780004F4D2064697361626C65640A006C61732B
:100790006572204F46460A006C61736572204F4EA9
:1007A0000A004163746976652045787472756465E2
:1007B000723A2000496E76616C69642065787472C3
:1007C000756465720A0048617264636F64656420D1
:1007D00044656661756C742053657474696E6773E3
:1007E000204C6F616465640A00307500003075004C
:1007F0000032000000E803000000FEFF4600FEFF9C
:1008000046000000400000C841000AA247000AA2BA
:10081000470000494400007A4520286D6D290020DA
:10082000440020490020204D3330312050005049F1
:10083000442073657474696E67733A0A00205A0025
:1008400020590020204D323036205800486F6D6509
:10085000206F66667365743A0A00204500205A00CE
:1008600020590020580020540020530020204D32F1
:10087000303520420020453C6D61785F655F6A65D8
:10088000726B3E0020583C6D61785F785F6A6572DC
:100890006B3E20593C6D61785F795F6A65726B3E93
:1008A000205A3C6D61785F7A5F6A65726B3E0041E9
:1008B0006476616E6365643A20423C6D696E5F7375
:1008C00065676D656E745F74696D655F75733E20F5
:1008D000533C6D696E5F66656564726174653E2048
:1008E000543C6D696E5F74726176656C5F666565B8
:1008F00064726174653E0020540020520020204D37
:10090000323034205000416363656C6572617469F4
:100910006F6E2028756E6974732F7332293A2050D8
:100920003C7072696E745F616363656C3E20523C1B
:10093000726574726163745F616363656C3E2054B9
:100940003C74726176656C5F616363656C3E0A003E
:10095000204500205A0020590020204D32303120FF
:1009600058004D6178696D756D20416363656C65F4
:10097000726174696F6E2028756E6974732F73329B
:10098000293A0A00204500205A0020590020204D15
:100990003230332058004D6178696D756D20666581
:1009A000656472617465732028756E6974732F7342
:1009B000293A0A00204500205A0020590020204DE5
:1009C0003932205800537465707320706572207539
:1009D0006E69743A0A0020204D3230302044300ACB
:1009E0000020204D32303020440020446973616281
:1009F0006C65640A0046696C616D656E7420736590
:100A00007474696E67733A002020473231202020C9
:100A1000203B00656E7175657565696E6720220003
:100A20004C696E65204E756D626572206973206E2B
:100A30006F74204C617374204C696E65204E756D27
:100A40006265722B312C204C617374204C696E6589
:100A50003A20004B494C4C45442E20005072696EA0
:100A60007465722073746F7070656420647565209E
:100A7000746F206572726F72732E204669782074CD
:100A80006865206572726F7220616E64207573658F
:100A9000204D39393920746F207265737461727416
:100AA0002E202854656D70657261747572652069B9
:100AB000732072657365742E2053657420697420E9
:100AC00061667465722072657374617274696E67B1
:100AD000290A004E6F20436865636B73756D20773C
:100AE000697468206C696E65206E756D6265722C24
:100AF000204C617374204C696E653A200063686510
:100B0000636B73756D206D69736D617463682C2000
:100B10004C617374204C696E653A20004D31313060
:100B20000020496E76616C69642065787472756422
:100B300065722000000070C2000070C2000000005A
:100B4000000070420000704200002043486F6D6951
:100B50006E67206661696C65640050726F746563CE
:100B60007465642050696E0A00205A3A0020593A90
:100B70000020436F756E7420583A0020453A0020DB
:100B80005A3A0020593A00583A003A004361703A04
:100B90000024F4D43050C38E20C2A24017828B7040
:100BA00011127A910D816CD90AA861E108C75866C3
:100BB00007615143061E4B5D05C145A7041A41114B
:100BC00004093D9803713931034036DB02653391E6
:100BD00002D4305402802E1D02632CEE01752AC50A
:100BE00001B028A001102781018F2564012B244B1F
:100BF00001E0223401AC211F018D200D01801FFC7A
:100C000000841EED00971DDF00B81CD200E61BC655
:100C100000201BBC00641AB200B219A8000A19A077
:100C2000006A189900D117910040178B00B51684FF
:100C30000031167E00B31579003A157300C7146FA2
:100C40000058146A00EE1366008813630025135ED3
:100C500000C7125B006C12570015125400C11151ED
:100C60000070114F0021114B00D61049008D104724
:100C7000004610440002104200C00F4000800F3EAA
:100C800000420F3C00060F3B00CB0E3800930E379E
:100C9000005C0E3500270E3400F30D3200C10D311B
:100CA00000900D3000600D2E00320D2D00050D2C32
:100CB00000D90C2B00AE0C2900850C29005C0C27F8
:100CC00000350C27000E0C2600E80B2400C40B2472
:100CD00000A00B23007D0B23005A0B2100390B21B0
:100CE00000180B2000F80A1F00D90A1E00BB0A1EBC
:100CF000009D0A1D00800A1D00630A1C00470A1B94
:100D0000002C0A1B00110A1A00F7091A00DD091944
:100D100000C4091900AB091900920917007B0918D2
:100D200000630917004C0916003609160020091641
:100D3000000A091500F5081500E0081400CC081495
:100D400000B8081400A4081400900813007D0812CD
:100D5000006B0813005808120046081200340811EE
:100D600000230811001208110001081100F00710FB
:100D700000E0071000D0071000C0071000B0070FF8
:100D800000A107100091070E0083070F0074070FE2
:100D90000065070E0057070E0049070E003B070DC0
:100DA000002E070E0020070D0013070D0006070D8B
:100DB00000F9060C00ED060D00E0060C00D4060C50
:100DC00000C8060C00BC060C00B0060C00A4060B04
:100DD0000099060C008D060B0082060B0077060BAF
:100DE000006C060B0061060A0057060B004C060A51
:100DF0000042060A0038060A002E060A0024060AE7
:100E0000001A060A001006090007060A00FD050977
:100E100000F4050900EB050900E2050900D9050900
:100E200000D0050900C7050900BE050900B5050881
:100E300000AD050800A50509009C050800940508FB
:100E4000008C050800840508007C0508007405086E
:100E5000006C050700650508005D050700560508DC
:100E6000004E050700470507004005080038050744
:100E700000310507002A050700230507001C0506A9
:100E800000160507000F0507000805060002050704
:100E900000FB040600F5040700EE040600E8040663
:100EA00000E2040700DB040600D5040600CF0406B8
:100EB00000C9040600C3040600BD040600B704060A
:100EC00000B1040500AC040600A6040600A0040559
:100ED000009B04060095040500900406008A0405A2
:100EE0000085040500800406007A040500750405E9
:100EF00000700405006B040500660405006104052C
:100F0000005C04050057040500520405004D04056B
:100F10000048040500430405003E0404003A0405AB
:100F20000035040500300404002C040500270404E7
:100F300000230405001E0404001A0404001604051E
:100F400000110404000D0404000904050004040455
:100F50000000040400FC030400F8030400F403048C
:100F600000F0030400EC030400E8030400E40304BD
:100F700000E0030400DC030400D8030400D40304ED
:100F800000D0030400CC030400C8030300C503031E
:100F90000024F404D9201BC40C5C0E9804C4095F1F
:100FA0000265077101F405F900FB04B300480487EA
:100FB00000C10369005803550003034500BE023A0F
:100FC000008402310053022A002902250004022075
:100FD00000E4011C00C8011900AF011700980114BA
:100FE0000084011300710110006101100051010E15
:100FF0000043010D0036010B002B010B0020010BFB
:1010000000150109000C01090003010800FB00089C
:1010100000F3000800EB000700E4000600DE000615
:1010200000D8000600D2000600CC000500C700056D
:1010300000C2000500BD000400B9000400B50004B2
:1010400000B1000400AD000400A9000400A50003E5
:1010500000A20003009F0004009B0003009800030F
:10106000009500020093000300900003008D000231
:10107000008B000300880002008600020084000349
:1010800000810002007F0002007D0002007B000260
:10109000007900020077000100760002007400026F
:1010A0000072000100710002006F0002006D00017B
:1010B000006C0002006A0001006900020067000184
:1010C000006600010065000100640002006200018A
:1010D0000061000100600001005F0002005D00018E
:1010E000005C0001005B0001005A00010059000192
:1010F0000058000100570001005600010055000192
:101100000054000100530000005300010052000190
:101110000051000100500001004F0001004E00008E
:10112000004E0001004D0001004C0001004B00008A
:10113000004B0001004A0001004900010048000086
:101140000048000100470001004600000046000181
:10115000004500000045000100440001004300007C
:101160000043000100420000004200010041000075
:101170000041000100400001003F0000003F00016D
:10118000003E0000003E0001003D0000003D000167
:10119000003C0000003C0000003C0001003B00005F
:1011A000003B0001003A0000003A00010039000055
:1011B000003900010038000000380000003800014C
:1011C0000037000000370001003600000036000044
:1011D0000036000100350000003500000035000138
:1011E000003400000034000000340001003300002F
:1011F0000033000000330001003200000032000024
:101200000032000100310000003100000031000117
:10121000003000000030000000300001002F00000E
:10122000002F0000002F0000002F0001002E000002
:10123000002E0000002E0001002D0000002D0000F7
:10124000002D0000002D0001002C0000002C0000EB
:10125000002C0000002C0001002B0000002B0000DF
:10126000002B0000002B0001002A0000002A0000D3
:10127000002A0000002A00010029000000290000C7
:1012800000290000002900000029000100280000BA
:1012900000280000002800000028000000280001AD
:1012A00000270000002700000027000000270000A2
:1012B0000027000100260000002600000026000094
:1012C0000026000000260001002500000025000087
:1012D0000025000000250000002500000025000179
:1012E000002400000024000000240000002400006E
:1012F0000024000100230000002300000023000060
:101300000023000000230000002300000023000150
:101310000022000000220000002200000022000045
:101320000022000000220001002100000021000036
:101330000021000000210000002100000021000029
:10134000002100010020000000200000002000001B
:10135000002000000020000000200000002000000D
:1013600000200001001F0000001F0000001F0000FF
:10137000001F0000001F0000001F0000001F0001F0
:10138000001E0000001E0000001E0000001E0000E5
:1013900000043700001E290000511B0000581000F7
:1013A0000010090000CC0400007802000041010098
:1013B00000526573656E643A20006F6B006275734E
:1013C000793A2070617573656420666F72206F7062
:1013D000656E656420646F6F720A00627573793A96
:1013E0002070617573656420666F7220696E707518
:1013F000740A00627573793A2070617573656420B0
:10140000666F7220757365720A00627573793A208F
:1014100070726F63657373696E670A004B494C4C59
:1014200045442E20004B494C4C2063617573656424
:1014300020627920746F6F206D75636820696E611A
:1014400063746976652074696D65202D20637572FB
:1014500072656E7420636F6D6D616E643A2000502A
:1014600072696E7465722068616C7465642E206B9D
:10147000696C6C28292063616C6C6564210A004BDF
:10148000494C4C45442E2000202D20496E76616C3D
:101490006964206578747275646572206E756D621A
:1014A000657220210A0000002100240027002A0084
:1014B0002D003000330001010000040107010A0182
:1014C0000102102020080810204010204080020156
:1014D000020108040201010204081020408080403B
:1014E000201008040201800402018040201008043A
:1014F00002010804020101020408102040800102D8
:10150000040810204080050505050705080808089F
:10151000020202020A0A080804040404010101018B
:101520000101010103030303030303030407070786
:101530000C0C0C0C0C0C0C0C02020202060606062B
:10154000060606060B0B0B0B0B0B0B0B2020506C2F
:10155000616E6E6572427566666572427974657316
:101560003A20002046726565204D656D6F72793AAC
:101570002000436F6D70696C65643A204F6374207E
:10158000203620323031390A00207C2041757468C1
:101590006F723A20286E6F6E652C206465666175E7
:1015A0006C7420636F6E666967290A0032303138C7
:1015B0002D30372D333100204C6173742055706409
:1015C000617465643A2000312E312E390A004D6174
:1015D000726C696E0020536F667477617265205279
:1015E000657365740A00205761746368646F6720CF
:1015F00052657365740A002042726F776E206F75B2
:10160000742052657365740A002045787465726EA3
:10161000616C2052657365740A00506F776572556E
:10162000700A0073746172740A00205A3A002059DB
:101630003A0020583A00656E6473746F70732068C6
:1016400069743A200070012C0190012701B0012239
:1016500001C0011D01F00118011002130130020E3A
:10166000016002090190020401C002FF000003FAB8
:10167000004003F5008003F000D003EB002004E6F7
:10168000007004E100E004DC004005D700C005D292
:10169000004006CD00D006C8008007C3003008BE59
:1016A00000F008B900C009B400B00AAF00B00BAA3E
:1016B00000D00CA500000EA000500F9B00C010969B
:1016C000005012910000148C00C0158700B01782E2
:1016D00000B0197D00D01B7800001E730040206E02
:1016E0000090226900F024640040275F0090295A8E
:1016F00000E02B5500102E500020304B00103246D9
:1017000000E033410090353C00103737007038322C
:1017100000A0392D00B03A2800A03B2300603C1EF9
:1017200000103D1900903D1400103E0F00703E0A5D
:1017300000C03E0500003F0000403FFBFF803FF639
:10174000FFC03FF1FF6265640A002C207379737457
:10175000656D2073746F70706564212048656174D5
:1017600065725F49443A20004531204865617469DB
:101770006E67206661696C65640048656174696EB6
:1017800067206661696C6564004531204572723A74
:10179000204D415854454D50004D415854454D50F1
:1017A000207472696767657265640045312045720F
:1017B000723A204D494E54454D50004D494E5445C6
:1017C0004D502074726967676572656400202F0050
:1017D00020403A0000002200250028002B002E00A7
:1017E0003100340002010000050108010B01000076
:1017F00020002300260029002C002F0032000001C9
:10180000000003010601090100000A0B02090C0D8A
:101810000E080703040100000000000000000000A3
:1018200000000000000000000000000000000000B8
:101830000000000012111000000000000000000075
:101840000000000000000000000000000000556ED5
:101850006B6E6F776E20636F6D6D616E643A2022E0
:101860000020746F6F206C6F6E67206578747275DE
:1018700073696F6E2070726576656E7465640A00B8
:1018800020636F6C6420657874727573696F6E2065
:1018900070726576656E7465640A006563686F3A98
:1018A000004572726F723A00453120544845524DDE
:1018B000414C2052554E4157415900546865726D54
:1018C000616C2052756E617761790000CD5D1124E5
:1018D0001FBECFEFD1E2DEBFCDBF00E00CBF12E0F4
:1018E000A0E0B2E0E2E5FCED00E00BBF02C0079033
:1018F0000D92A036B107D9F72CE0A0E6B2E001C006
:101900001D92A037B207E1F71CE0C7E6DCE000E07B
:1019100006C021970109802FFE010E94EC6DC6369A
:10192000D10780E00807A9F70E94EE5D0C94276EAE
:101930000C9400002F923F924F925F926F927F9291
:101940008F929F92AF92BF92CF92DF92EF92FF92CF
:101950000F931F93CF93DF93CDB7DEB7C159D10952
:101960000FB6F894DEBF0FBECDBF81E08093810338
:1019700083E00E94D249082FF5E0FF2E079B09C0A3
:10198000F092810360E083E00E94FA490E942843BC
:10199000F5CF90B1192F107295FDF2CF602F83E033
:1019A0000E94FA4941E0409381039091A1049D3443
:1019B00011F00C94FD1A20919F043091A004283757
:1019C000310509F432C50CF084C02C35310509F419
:1019D000D0C30CF042C02C34310509F403C2E4F446
:1019E0002F31310509F428C154F42131310509F4AE
:1019F0001DC12231310509F46EC30C94FA1A2A3242
:101A0000310509F4BCC12B34310511F00C94FA1ADC
:101A10000E948B350C941A1B2235310509F452C3F0
:101A200084F42D34310509F4F2C12135310511F06A
:101A30000C94FA1A0E94D44C0E945A4700E010E01D
:101A40002AC32435310509F446C30CF43FC32535B8
:101A5000310509F473C30C94FA1A2037310509F4DF
:101A60008AC2B4F42C36310509F481C254F4283604
:101A7000310509F4D0C12936310509F4ACC20C9402
:101A8000FA1A2E36310509F4EFC10CF4E6C2FFC193
:101A90002337310509F4F7C37CF42137310509F404
:101AA0006EC22237310511F00C94FA1A0E944C468E
:101AB0000E94702A0C941A1B2637310509F441C480
:101AC0000CF08BC42537310511F40C941A1B0C94BF
:101AD000FA1A2E32F1E03F0711F40C94CC160CF0F8
:101AE0004BC02D3C310509F4A3C524F5283C310534
:101AF00009F4A7C454F42937310509F49CC42B39DF
:101B0000310509F483C20C94FA1A2B3C310509F40F
:101B1000F9C40CF015C5293C310511F00C94FA1AE2
:101B2000A0EBEA2EA3E0FA2E0AE312E0B4E0DB2EEB
:101B3000D00ECFC42C3D310509F4E7C764F42E3C28
:101B4000310509F4E0C5233D310511F00C94FA1A72
:101B5000EBE9F8E108C7223E310511F40C940016B8
:101B60002D3251E0350711F40C942B162D3D310523
:101B700011F00C94FA1AD6C7253F81E0380711F40A
:101B80000C94B01A54F52039A1E03A0711F40C94E2
:101B9000941A7CF42F32E1E03E0711F40C942017E4
:101BA0002336314011F00C94FA1AE1EAF8E10C9472
:101BB0007D1A2C3A41E0340709F4C8C5243F51E0AE
:101BC000350711F40C94971A2A39314011F00C940E
:101BD000FA1A0E941D2C0C941A1B223893E0390724
:101BE00011F40C94C51A6CF4263FB1E03B0711F4D4
:101BF0000C94B61A273F314011F40C94B91A0C9486
:101C0000FA1A2B38F3E03F0711F40C941A1B273E05
:101C100043E0340711F40C94E71A2338334011F0F1
:101C20000C94FA1AE8E9F7E00C94D71AA598A5984D
:101C30004598A5980C941A1B0E9457352CE3C22E88
:101C4000D12CE12CF12CA70196010E94BC6A762EC2
:101C5000672ECA01B901A70196010E94BC6A6B01F7
:101C60007C01CA01B90128E130E040E050E00E9467
:101C7000BC6A4B015C01C9016DE671E00E94BC6D5C
:101C80008E010F5F1F4F6115710599F06F927F9262
:101C9000DF92CF929F928F929F938F937F936F93B8
:101CA0008EE992E09F938F931F930F930E94C866D3
:101CB00026C0009789F06F927F92DF92CF929F9219
:101CC0008F929F938F938EE892E09F938F931F93B1
:101CD0000F930E94C86613C081149104A104B1043B
:101CE000B1F06F927F92DF92CF929F928F9282E8B3
:101CF00092E09F938F931F930F930E94C8660FB635
:101D0000F894DEBF0FBECDBFEBE9F8E123C0C114EC
:101D1000D104E104F10469F06F927F92DF92CF92D7
:101D20008AE792E09F938F931F930F930E94C86658
:101D3000E6CF6F927F9286E792E09F938F931F93F7
:101D40000F930E94C8660F900F900F900F900F9006
:101D50000F90DACF84917F013FEFE31AF30A8823D3
:101D600021F00E940941F701F5CFB80182EB92E022
:101D70000E94633E8AE00E9409410C941A1B83E58D
:101D80000E948B2F882311F40C941A1B0E94F12EB1
:101D9000082F80E50E948B2F882311F40C941A1BC6
:101DA0000E94F12E182F87FF02C00C941A1BEDE43D
:101DB000F5E08DE28E0F9491191711F40C945926C9
:101DC00031968E13F8CF61E0812F0E94294A602F4F
:101DD000812F0E94FA49602F70E0812F0E94654A8E
:101DE0000C941A1B80915B04813011F00C941A1B27
:101DF00082E080935B040E94644B60935304709371
:101E0000540480935504909356040C941A1B0E941A
:101E1000C4350C941A1B88E690E00E94173081119B
:101E20000C941A1B80913E0C83FF02C00C941A1B69
:101E300083E50E948B2F882399F00E94112F0E9426
:101E40003C6CCB010E94D4420E94112F20E030E074
:101E500040E751E40E94F766181614F00E94C4355A
:101E60000E94893E0C941A1B8EE40E948B2F8823BB
:101E700011F40C941A1B0E94E12E6093580C70937D
:101E8000590C80935A0C90935B0C0C941A1B83E5AD
:101E90000E94442F882351F083E50E948B2F8823D2
:101EA00019F00E94F12E182F10933E0CEBE9F8E187
:101EB00084918F010F5F1F4F882321F00E940941F9
:101EC000F801F6CFEDECF2E084918F010F5F1F4F28
:101ED000882321F00E940941F801F6CF80913E0C41
:101EE0008823A1F18FEBC82E82E0D82EE12CF12CB3
:101EF00020E080913E0C90E00E2C02C095958795D5
:101F00000A94E2F780FF17C0BB24B394B20E2223D9
:101F100019F08CE20E940941F60125913491F901F2
:101F2000849189010F5F1F4F882321F00E9409418E
:101F30009801F5CF2B2DFFEFEF1AFF0A32E0C30E09
:101F4000D11C45E0E416F104A1F60CC0E9ECF2E086
:101F500084918F010F5F1F4F882321F00E94094158
:101F6000F801F6CF8AE00E9409410C941A1B1092E6
:101F700007020C941A1B84ED92E00E94FA4283E55A
:101F80000E948B2F882369F00E94F12E8093190202
:101F90008D3310F40C941A1B8CE3809319020C946B
:101FA0001A1BEBE9F8E184918F010F5F1F4F882323
:101FB00021F00E940941F801F6CF4091190250E04A
:101FC00060E070E08DED92E00E94163E8AE00E9493
:101FD00009410C941A1B89E690E00E941730811188
:101FE00011C0E4EEF2E084918F010F5F1F4F882350
:101FF00021F00E940941F801F6CF0E94564C8AE078
:102000000E940941109281030C94DF2983E50E940C
:102010008B2F882311F40C941A1B0E94F12E182F79
:102020008D3308F01CE310938E030E94644B6B0108
:102030007C01212F30E0A8EEB3E00E94E86AC60ED2
:10204000D71EE81EF91EC0928A03D0928B03E0923D
:102050008C03F0928D030C941A1B8DE690E00E9485
:10206000173081110C941A1B80913E0C83FF02C023
:102070000C941A1B83E50E948B2F2B968FAF2B9706
:1020800081110C945C2682E50E948B2F81110C94A7
:102090005C260C941A1B62E370E080E090E00E94E2
:1020A0002C4B0E94794E0F5F1F4F0331110599F79A
:1020B00062E370E080E090E00E942C4B0E94794E39
:1020C0000C941A1B10928D020C941A1B81E08093C1
:1020D0008D020C941A1B83E50E948B2F8823A1F09C
:1020E0000E94112F20E030E04AE754E40E945C6730
:1020F0000E94416C60931A0270931B0280931C0231
:1021000090931D020C941A1B88E50E94442F8111A4
:102110000C94DC2789E50E94442F81110C94DC2764
:102120008AE50E94442F81110C94DC2785E40E94EB
:10213000442F81110C94DC270C94002883E50E9425
:10214000442F882311F40C941A1B0E94112F20E0B5
:1021500030E04AE754E40E945C670E94416C60935F
:1021600086037093870380938803909389030C946C
:102170001A1B1AE3C12E12E0D12E0FE3E02E0CE061
:10218000F02E10E0F60181916F010E94442F882308
:1021900009F46EC0133009F063C00E94112F4B0187
:1021A0005C0120E030E040EA51E40E94F76687FFDE
:1021B0004EC0A501940160914B0C70914C0C809124
:1021C0004D0C90914E0C0E94D46B2B013C019B0155
:1021D000AC01609198067091990680919A06909151
:1021E0009B060E945C6760939806709399068093A3
:1021F0009A0690939B06A30192016091C806709184
:10220000C9068091CA069091CB060E945C676093D4
:10221000C8067093C9068093CA069093CB06609156
:10222000A8067091A9068091AA069091AB060E941B
:10223000FB66A30192010E945C670E94416C60935F
:10224000A8067093A9068093AA069093AB06809285
:102250004B0C90924C0CA0924D0CB0924E0C08C0BE
:102260000E94112FD7016D937D938D939C931397AB
:102270001F5FB4E0EB0EF11C143009F083CF0E9415
:102280002F470C941A1BEAECF3E084918F010F5F47
:102290001F4F882321F00E940941F801F6CF60E02A
:1022A0008AEB93E00E942C2A60E083EB93E00E948B
:1022B0002C2A61E088EA93E00E942C2A61E088E9F8
:1022C00093E00E942C2A60E08FE893E00E942C2A81
:1022D00061E085E893E00E942C2A60E08BE793E0C0
:1022E0000E942C2A60E083E793E00E942C2A60E0A1
:1022F00085E693E00E942C2A60E087E593E00E9447
:102300002C2A60E088E493E00E942C2A60E08AE3B3
:1023100093E00E942C2A60E084E293E00E942C2A41
:1023200060E083E193E00E942C2A60E08EEF92E06F
:102330000E942C2A61E08BEE92E00E942C2A0C94E1
:102340001A1B00919D0410919E0483E0D12C40E063
:102350008150E1F0F8019081292F2B7F2134C1F7C2
:1023600021812133A9F7913421F0953421F441E002
:1023700002C0DD24D39498012E5F3F4F89012F5F67
:102380003F4FD8019C919032C9F3E2CF442369F0CA
:10239000EBE9F8E184917F01BFEFEB1AFB0A882398
:1023A00021F00E940941F701F5CFDD2069F0E0E955
:1023B000F4E084917F012FEFE21AF20A882321F0E2
:1023C0000E940941F701F5CFD8018D918D01882335
:1023D00009F4C8CD0E940941F7CFECE9F4E08491FB
:1023E0008F010F5F1F4F882321F00E940941F801E0
:1023F000F6CFE4E9F4E084918F010F5F1F4F88234B
:1024000021F00E940941F801F6CF039B03C00EE3BF
:1024100012E002C003E412E0F80181918F018823E9
:1024200009F4A0CD0E940941F7CF40935D04409389
:102430005C040C941A1B10925D0410925C040C94C2
:102440001A1B88EC90E00E94173081110C941A1B23
:1024500084E40E94442F8823C1F10E94112F11E0CF
:1024600020E030E0A9010E94F766811101C010E070
:1024700010939B03112349F10E94112FE09136061E
:1024800024E0E29FF0011124E056FC4F6083718349
:102490008283938320E030E0A9016091A0037091D2
:1024A000A1038091A2039091A3030E94F76681117A
:1024B0000CC080E090E0A0E4B0E48093A00390938F
:1024C000A103A093A203B093A3030E94643F0C94C2
:1024D0001A1BD8018D918D010E94442F882349F049
:1024E0000E94112F0E94416CF701608371838283E7
:1024F0009383F4E0EF0EF11CD012EBCF0E94CD3E9F
:102500000C941A1BECEBEE2EE6E0FE2E0AE312E032
:10251000F4E0DF2ED00ED8018D918D010E94442F62
:10252000882339F00E94112FF70160837183828321
:102530009383F4E0EF0EF11CD012EDCF0C941A1B34
:1025400083E50E948B2F8823A1F00E94112F6093B6
:10255000B4067093B5068093B6069093B706609361
:10256000B0067093B1068093B2069093B30610E064
:1025700001C011E080E50E948B2F882359F00E9452
:10258000112F6093B4067093B5068093B6069093AE
:10259000B70610E082E50E948B2F882359F00E9435
:1025A000112F6093B8067093B9068093BA06909382
:1025B000BB0610E084E50E948B2F882361F00E9407
:1025C000112F6093B0067093B1068093B20690937A
:1025D000B3060C941A1B112311F40C941A1B40918E
:1025E000B4065091B5066091B6067091B7068CEBB3
:1025F00094E00E94313E4091B8065091B906609136
:10260000BA067091BB0689EB94E00E94313E40917E
:10261000B0065091B1066091B2067091B30686EB98
:1026200094E00E94313E8AE00E9409410C941A1BFA
:1026300082E40E94442F882351F00E94D12E60939F
:10264000CC067093CD068093CE069093CF0683E59B
:102650000E94442F882351F00E94112F6093E506B9
:102660007093E6068093E7069093E80684E50E945F
:10267000442F882351F00E94112F6093E10670933C
:10268000E2068093E3069093E40688E50E94442FD7
:10269000882351F00E94112F60938C0670938D0651
:1026A00080938E0690938F0689E50E94442F88239D
:1026B00051F00E94112F60939006709391068093C1
:1026C0009206909393068AE50E94442F882351F046
:1026D0000E94112F6093940670939506809396063E
:1026E0009093970685E40E94442F882309F4A2C79B
:1026F0000E94112F609398067093990680939A0612
:1027000090939B0697C76AE3C62E62E0D62E7FE5BC
:10271000E72E74E0F72E10E0D6018D916D010E9436
:10272000442F882351F00E94112FF7016083718399
:1027300082839383812F0E94A42B1F5FF4E0EF0E0E
:10274000F11C133049F70E94702A74C780917C02F3
:10275000982F917011E0D92ED12681FB002700F926
:10276000012782FB882780F91827D11002C0002397
:1027700019F0EBE9F8E114C01111FBCF50EE852EF2
:1027800054E0952E8BE694E09BAB8AABDE0111966C
:102790005D010AE015E01D01B3E0B00FBEAB52C011
:1027A00084917F012FEFE21AF20A882321F00E9420
:1027B0000941F701F5CFEAEDF4E084917F013FEFA5
:1027C000E31AF30A882321F00E940941F701F5CFAB
:1027D000DD2069F0E8EDF4E084917F014FEFE41A29
:1027E000F40A882321F00E940941F701F5CF002364
:1027F00069F0E6EDF4E084917F015FEFE51AF50AF8
:10280000882321F00E940941F701F5CF111103C07F
:10281000ECECF4E00CC0E4EDF4E084918F010F5F88
:102820001F4F8823A9F30E940941F801F6CF849134
:102830008F010F5F1F4F882309F4FCC60E940941D6
:10284000F801F5CFF4016591759185919491EAA90C
:10285000FBA9C190D190E190F190FBABEAABA7014D
:1028600096010E94F76A2B013C0120E030E040EA2B
:1028700051EC0E941E6D87FD11C020E030E040EA5F
:1028800051E4C301B2010E94F76618163CF0D10171
:102890004D925D926D927C9213970EC0F8018491D7
:1028A0001816ACF7F7FAF094F7F8F094D101CD923E
:1028B000DD92ED92FC921397D101CD90DD90ED90D9
:1028C000FD901D0120E030E040EA51ECC701B60167
:1028D0000E941E6D87FF03C0E1EAF8E10BC020E013
:1028E00030E040EA51E4C701B6010E94F7661816CD
:1028F000C4F4F2CF84918F010F5F1F4F882321F022
:102900000E940941F801F6CFECEEF4E084918F01CA
:102910000F5F1F4F882309F48DC60E940941F801FB
:10292000F5CFB4E08B0E911C0F5F1F4FEEA9E013A3
:1029300089CF4FE5E42E44E0F42E10E0F5018191BB
:102940009191A191B1915F01F70181939193A1932D
:10295000B1937F01812F0E94A42B1F5F133071F769
:102960000E94702A67C684918F010F5F1F4F8823D2
:1029700021F00E940941F801F6CF83E50E94442F1F
:10298000882321F00E94022F80930402E5E3F5E002
:1029900084918F010F5F1F4F882321F00E9409410E
:1029A000F801F6CF80910402811103C0E1E3F5E064
:1029B00002C0EDE2F5E084918F010F5F1F4F882385
:1029C00021F00E940941F801F6CFE5E2F5E084919B
:1029D0008F010F5F1F4F882321F00E940941F801EA
:1029E000F6CF40907D0250907E0260907F02709002
:1029F000800220918F033091900340919103509178
:102A00009203C301B2010E94F86AAB01BC0183E2E8
:102A100095E00E94313E8090810290908202A090C9
:102A20008302B090840220919303309194034091EB
:102A3000950350919603C501B4010E94F86AAB0159
:102A4000BC0180E295E00E94313EC0908502D090AA
:102A50008602E0908702F0908802209197033091DF
:102A600098034091990350919A03C701B6010E94BF
:102A7000F86AAB01BC018DE195E00E94313EE5E1D1
:102A8000F5E084918F010F5F1F4F882321F00E9492
:102A90000941F801F6CF20911E0230911F024091AA
:102AA000200250912102C301B2010E94F86AAB01D9
:102AB000BC0183E195E00E94313E209122023091D9
:102AC00023024091240250912502C501B4010E94C5
:102AD000F86AAB01BC0180E195E00E94313E209193
:102AE0002602309127024091280250912902C70105
:102AF000B6010E94F86AAB01BC018DE095E00E942E
:102B0000313E8AE00E94094195C583E50E948B2FE2
:102B1000882309F48FC50E94E12E7093060260930A
:102B2000050288C58DED90E00E941730811182C5A5
:102B300083E50E948B2F8823D9F10091360610E09F
:102B40000E94E12E000F111FF801E65DFD4F718319
:102B500060838091360690E08C01000F111F000FFA
:102B6000111F98012C5C3D4F7901880F991FFC01C2
:102B7000E65DFD4F60817181072E000C880B990B7B
:102B80000E94FD662AE037ED43E25CE30E945C6749
:102B9000F801E456FC4F20813181428153810E942B
:102BA0005C67D7016D937D938D939C93139742C57A
:102BB000EBE9F8E184918F010F5F1F4F882321F02B
:102BC0000E940941F801F6CF85E40E9409418091F5
:102BD0003606805D0E940941E0913606F0E0EE0F76
:102BE000FF1FE65DFD4F6081718185E495E00E94E5
:102BF0004C3E85E20E9409418AE00E9409411AC5C3
:102C000080E50E94442F882309F414C50E94E12E18
:102C10006B017C0183E50E948B2F882321F00E94A9
:102C2000E12E8B0102C00FEF1FEFC8010196039741
:102C300008F000C5D7FCFEC49C2DEDE4F5E08DE264
:102C40008E0F2491921711F40C94592631968E13FD
:102C5000F8CF0C94042885E40E948B2F811110C0BA
:102C600080E50E94442F882391F00E94112F6093E9
:102C70002B0670932C0680932D0690932E0607C08A
:102C80000E94F12E882361F3E1EAF8E16EC089E445
:102C90000E94442F882381F00E94112F2CEA35ECEA
:102CA00047E25EE30E945C67609327067093280604
:102CB0008093290690932A0684E40E94442F882357
:102CC00081F00E94112F2CEA35EC47E25EE30E946E
:102CD000D46B60932F0670933006809331069093E7
:102CE0003206EBE9F8E184918F010F5F1F4F8823D3
:102CF00021F00E940941F801F6CF40912B06509136
:102D00002C0660912D0670912E0682E895E00E94B7
:102D1000313E2CEA35EC47E25EE360912706709184
:102D200028068091290690912A060E94D46BAB0157
:102D3000BC018EE795E00E94313E2CEA35EC47E27B
:102D40005EE360912F06709130068091310690917C
:102D500032060E945C67AB01BC018AE795E00E94E5
:102D6000313E8AE00E94094165C484918F010F5F62
:102D70001F4F882321F00E940941F801F6CFE6E8B1
:102D8000F5E084918F010F5F1F4F882309F452C42F
:102D90000E940941F801F5CF83E50E94442F182FC6
:102DA000882371F00E94112F0E943C6C70933902AD
:102DB0006093380221E0672B09F020E02093EA06B7
:102DC00080E50E94442F882359F0209138023091E9
:102DD0003902232B11F00E94022F8093EA062AC4A5
:102DE000111128C4EBE9F8E184918F010F5F1F4FA7
:102DF000882321F00E940941F801F6CF8091EA066C
:102E0000811103C06DE472E002C060E472E08DEAFB
:102E100095E00E94633E60913802709139028CE91E
:102E200095E00E944C3EE8E9F5E084918F010F5F48
:102E30001F4F882309F4FEC30E940941F801F5CF12
:102E400085E40E948B2F882321F00E94E12E7B01D4
:102E500002C0E12CF12C83E40E948B2F882331F0F7
:102E60000E94E12EE4966FAFE49704C025E0E4965B
:102E70002FAFE49785E50E948B2F882319F00E94DD
:102E8000022F03C085E50E94442FC158DF4F88837D
:102E9000CF57D040F7FC07C0812C912CF6E1AF2E24
:102EA000F3E4BF2E06C0812C912CECE8AE2EE2E4B8
:102EB000BE2E83E50E948B2F882321F00E94112FC4
:102EC0004B015C01E114F10411F4109236060E94EA
:102ED000644B2B013C01EE2069F0EFE2F7E08491B6
:102EE0008F010F5F1F4F882309F4A4C30E9409417B
:102EF000F801F5CFE9E5F7E084917F013FEFE31AB0
:102F0000F30A882321F00E940941F701F5CFC5019A
:102F1000B4010E943C6C072E000C880B990B0E9498
:102F2000FD666AAF7EAF23968FAF239727969FAF3C
:102F30002797D301C201805E914BAF4FBF4FC85757
:102F4000DF4F88839983AA83BB83C858D0400E94EF
:102F5000D44C8FE78093350681E080930702EB968F
:102F60004CAE5DAE6EAE7FAEEB97C058DF4F488281
:102F700059826A827B82C058D040E7961FAEE7979D
:102F8000CC57DF4F188219821A821B82C458D04056
:102F90006B961FAE6B9790E42F969FAF2F97ACE187
:102FA0006396AFAF6397B6E46F96BFAF6F976796C0
:102FB0001FAE6797A3961FAEA397A7961FAEA797BE
:102FC000AB961FAEAB97E3961CAE1DAE1EAE1FAE0A
:102FD000E397AF961CAE1DAE1EAE1FAEAF97C12CD1
:102FE000D12C76012FE730E040E050E02EAB3FAB34
:102FF00048AF59AF7FE7872E912CA12CB12CEF96CB
:103000001CAE1DAE1EAE1FAEEF9731E0E6963FAF91
:10301000E6972C961FAE1EAE2C9710E0212C312C7B
:1030200000E0E4964FADE497042E000C550BE596B6
:103030005FAF4EAFE59780910702882309F405C181
:103040000E94644B6AAB7BAB8CAB9DAB809134062A
:10305000882309F4DAC00E94304D10915C0C209056
:103060005D0C30905E0C00915F0C212F322D432DB2
:10307000502F67966FAD6797A3967FADA397A796DE
:103080008FADA797AB969FADAB970E94F76687FF72
:103090000CC067961FAF6797A3962FAEA397A7960E
:1030A0003FAEA797AB960FAFAB97212F322D432D95
:1030B000502F6B966FAD6B972F967FAD2F976396C2
:1030C0008FAD63976F969FAD6F970E941E6D181618
:1030D00064F46B961FAF6B972F962FAE2F97639666
:1030E0003FAE63976F960FAF6F97E6965FADE6972B
:1030F0002AAD3EAD23964FAD2397552309F462C008
:1031000027965FAD2797612F722D832D902F0E94F8
:103110001E6D18160CF079C08AA99BA9ACA9BDA98F
:1031200084199509A609B709C257DF4F8883998387
:10313000AA83BB83CE58D04088589341A109B109D6
:10314000B7FD63C0D501C4012EA93FA948AD59AD53
:10315000821B930BA40BB50BB595A79597958795F7
:1031600080933506C257DF4F88819981AA81BB8140
:10317000CE58D040EF968CAF9DAFAEAFBFAFEF97BC
:103180009AAD67969FAF6797AEADA396AFAFA39783
:103190002396BFAD2397A796BFAFA7972796EFAD0E
:1031A0002797AB96EFAFAB972AA93BA94CA95DA98E
:1031B000EB962CAF3DAF4EAF5FAFEB97E6961FAEF1
:1031C000E69723C027965FAD2797612F722D832D39
:1031D000902F0E94F76687FF18C08AA99BA9ACA907
:1031E000BDA9EB962CAD3DAD4EAD5FADEB97821B0F
:1031F000930BA40BB50BAC01BD01485853416109B9
:10320000710977FD02C00C942D2820E030E040EADF
:1032100051E46AAD7EAD23968FAD239727969FAD7F
:1032200027970E94F86A9B01AC01612F722D832DB4
:10323000902F0E941E6D18167CF4EBEBF6E0849143
:103240008F010F5F1F4F811103C00E94D44CF2C148
:103250000E940941F801F3CF8AA99BA9ACA9BDA995
:10326000C058DF4F288139814A815B81C058D040E6
:10327000821B930BA40BB50BB7FDA3C00E94564C49
:103280008AE00E9409418AA99BA9ACA9BDA98053E3
:10329000984FAF4FBF4FC058DF4F88839983AA83A1
:1032A000BB83C058D040E7969FADE79791116AC0A5
:1032B000CC57DF4F288139814A815B81C458D04087
:1032C000612F722D832D902F0E941E6D18160CF009
:1032D00042C020E030E040E050E4612F722D832DA9
:1032E000902F0E94F86ACC57DF4F688379838A83D6
:1032F0009B83C458D0402AA93BA94CA95DA9205E54
:10330000314B4F4F5F4FC857DF4F288339834A8374
:103310005B83C858D04020E030E040EC50E46AAD18
:103320007EAD23968FAD239727969FAD27970E945A
:10333000F76A9B01AC0181E0E7968FAFE797612FB9
:10334000722D832D902F0E941E6D1816D4F1E796D2
:103350001FAEE79736C08AA99BA9ACA9BDA9C857DB
:10336000DF4F288139814A815B81C858D040821B58
:10337000930BA40BB50BB7FD24C04AE956E06CEAE9
:1033800076E01CC020E030E040EA51E46AAD7EAD5A
:1033900023968FAD239727969FAD27970E94F76AB4
:1033A0009B01AC01612F722D832D902F0E94F76637
:1033B00087FF07C047E756E06AE876E080E00E94B2
:1033C000424D8AA99BA9ACA9BDA9880F991FAA1F24
:1033D000BB1FEB962CAD3DAD4EAD5FADEB97821BA9
:1033E000930BA40BB50B84199509A609B70981386D
:1033F0009F44A241B10568F0E9E5F6E084918F01B0
:103400000F5F1F4F882309F420CF0E940941F80164
:10341000F5CF2C964EAD5FAD2C97E5968EAD9FAD5A
:10342000E597841795070CF006CEECEFF5E0849154
:103430008F010F5F1F4F882321F00E940941F8017F
:10344000F6CFB701A60188EE95E00E94313E8AE0F2
:103450000E940941AF964CAD5DAD6EAD7FADAF97AB
:1034600084ED95E00E94313E8AE00E940941E39696
:103470004CAD5DAD6EAD7FADE39780EC95E00E9405
:10348000313E8AE00E940941C158DF4F9881CF57F1
:10349000D040992309F4CEC0C0922B06D0922C06BE
:1034A000E0922D06F0922E062CEA35EC47E25EE320
:1034B000AF966CAD7DAD8EAD9FADAF970E945C6752
:1034C00060932706709328068093290690932A0616
:1034D0002CEA35EC47E25EE3E3966CAD7DAD8EAD54
:1034E0009FADE3970E94D46B60932F0670933006D4
:1034F00080933106909332069DC084918F010F5FB7
:103500001F4F882321F00E940941F801F6CFEDE614
:10351000F7E084918F010F5F1F4F882309F48AC061
:103520000E940941F801F5CF0E944C4683C0E1EAB0
:10353000F8E184918F010F5F1F4F882321F00E94D3
:103540000941F801F6CFECE7F7E084918F010F5FB6
:103550001F4F882309F46EC00E940941F801F5CF7E
:103560000E94D33380E00E949D3064C00E94D33318
:1035700061C083E50E94442F882321F00E94022F1E
:1035800091E089270E949D3055C0EDE8F7E08491D5
:103590008F010F5F1F4F882321F00E940941F8011E
:1035A000F6CF60E070E082E00E94654A43C08491FB
:1035B0008F010F5F1F4F882321F00E940941F801FE
:1035C000F6CF60E270E082E00E94654A33C081E09D
:1035D0008093300283E50E948B2F882339F00E946C
:1035E000022F811127C00E94DD4724C083E50E947D
:1035F000442FF7CF0E949C5C1DC0943509F197348D
:1036000011F00C94BC2380919F049091A00484300D
:10361000910509F4D9C50CF056C097FF02C00C946F
:10362000B82310913002823091050CF06CC011115A
:103630000C94C023109281030E94C2470C94DF298E
:10364000F0909F040E944C46FF2029F1EBE9F8E13D
:1036500084918F010F5F1F4F882321F00E94094141
:10366000F801F6CF84E50E9409416F2D70E080E0FB
:1036700090E04AE00E94134180E20E940941E4EB9D
:10368000F7E084918F010F5F1F4F882399F20E940A
:103690000941F801F6CF10928902EBE9F8E1849133
:1036A0008F010F5F1F4F882321F00E940941F8010D
:1036B000F6CF60E070E082EA97E00E944C3E8AE03C
:1036C0000E940941B7CF8A35910509F497C72CF4B8
:1036D0004C9709F4ACC50C94B8238B35910509F4CB
:1036E00090C78C35910511F00C94B8233AE3232E42
:1036F00032E0332E40E7C42E42E0D42EE12CF12CF0
:1037000000E010E0BBC7112309F494CF11E0029749
:1037100009F010E00E94972F82E50E948B2F8823EA
:1037200009F442C10E94112F6B017C0140906B048F
:1037300050906C0460906D0470906E0420916F0442
:103740003091700440917104509172042AAB3BABEC
:103750004CAB5DAB8091600290916102A0916202DE
:10376000B09163028EAB9FABA8AFB9AF209164025A
:103770003091650240916602509167022AAF3BAFDB
:103780004CAF5DAF20E030E0A901C701B6010E9457
:10379000F766882309F4FFC4A30192016EA97FA9EB
:1037A00088AD99AD0E94F76681110DC02AA93BA989
:1037B0004CA95DA96AAD7BAD8CAD9DAD0E94F7664D
:1037C000882309F4E8C420E030E0A901C701B6016C
:1037D0000E94F766881F8827881F18130BC080E097
:1037E00090E0A0E8BFE32E968CAF9DAFAEAFBFAF29
:1037F0002E970AC020E030E040E85FEB2E962CAF19
:103800003DAF4EAF5FAF2E97A30192016EA97FA986
:1038100088AD99AD0E94F76A26966CAF7DAF8EAFEA
:103820009FAF26972AA93BA94CA95DA96AAD7BAD9C
:103830008CAD9DAD0E94F76A2A966CAF7DAF8EAFBE
:103840009FAF2A9726962CAD3DAD4EAD5FAD269726
:10385000CA01B9010E945C674B015C012A962CAD3C
:103860003DAD4EAD5FAD2A97CA01B9010E945C67BC
:103870009B01AC01C501B4010E94F86A0E94636D0E
:1038800022966CAF7DAF8EAF9FAF229720E030E0E5
:1038900040E05FE30E945C674B015C01A701960179
:1038A000C701B6010E945C676B017C01A501940110
:1038B000C501B4010E945C679B01AC01C701B60160
:1038C0000E94F76A0E94636D9B01AC012E966CAD5D
:1038D0007DAD8EAD9FAD2E970E945C674B015C0164
:1038E0002EA93FA948AD59ADC301B2010E94F86AA3
:1038F00020E030E040E05FE30E945C676B017C0108
:103900002A966CAD7DAD8EAD9FAD2A9790582296CC
:103910002CAD3DAD4EAD5FAD22970E94D46B9B01A7
:10392000AC01C501B4010E945C679B01AC01C701F9
:10393000B6010E94F86AA30192010E94F76A6B0126
:103940007C012AAD3BAD4CAD5DAD6AA97BA98CA9CC
:103950009DA90E94F86A20E030E040E05FE30E9409
:103960005C672B013C0122962CAD3DAD4EAD5FADA9
:10397000229726966CAD7DAD8EAD9FAD26970E94A9
:10398000D46B9B01AC01C501B4010E945C679B0133
:10399000AC01C301B2010E94F86A2AA93BA94CA953
:1039A0005DA90E94F76A14C089E40E948B2F8823C6
:1039B00029F00E94112F6B017C0103C0C12CD12C76
:1039C00076018AE40E948B2F8823D9F00E94112F60
:1039D0006AAF7BAF8CAF9DAF20E030E0A901C7019B
:1039E000B6010E94F76681111AC020E030E0A901FB
:1039F0006AAD7BAD8CAD9DAD0E94F76681110FC0A5
:103A0000CAC320E030E0A901C701B6010E94F766F1
:103A1000882309F4C0C31AAE1BAE1CAE1DAED7017D
:103A2000C601B0588AAB9BABACABBDAB2AAD3BADCE
:103A30004CAD5DAD50582EAB3FAB48AF59AF9C017C
:103A4000AD01BC01CD010E945C674B015C012EA958
:103A50003FA948AD59ADCA01B9010E945C679B01FD
:103A6000AC01C501B4010E94F86A0E94636D6A96B8
:103A70006CAF7DAF8EAF9FAF6A9780916B049091D2
:103A80006C04A0916D04B0916E0422968CAF9DAF32
:103A9000AEAFBFAF2297A7019601BC01CD010E9436
:103AA000F86A2E966CAF7DAF8EAF9FAF2E972091A8
:103AB0006F04309170044091710450917204269605
:103AC0002CAF3DAF4EAF5FAF26972AAD3BAD4CADAF
:103AD0005DAD26966CAD7DAD8EAD9FAD26970E94F7
:103AE000F86A6E966CAF7DAF8EAF9FAF6E97809188
:103AF000600290916102A0916202B09163022A96E5
:103B00008CAF9DAFAEAFBFAF2A972E962CAD3DAD1B
:103B10004EAD5FAD2E97BC01CD010E94F76A6B01DF
:103B20007C012091640230916502409166025091BF
:103B3000670262962CAF3DAF4EAF5FAF62976E9655
:103B40002CAD3DAD4EAD5FAD6E9762966CAD7DAD6B
:103B50008EAD9FAD62970E94F76A4B015C01809128
:103B6000730490917404A0917504B09176046696E4
:103B70008CAF9DAFAEAFBFAF66979C01AD016091BA
:103B800068027091690280916A0290916B020E94B2
:103B9000F76A2B013C0120916C0230916D0240913B
:103BA0006E0250916F02A6962CAF3DAF4EAF5FAF45
:103BB000A6978091770490917804A0917904B091B0
:103BC0007A04A2968CAF9DAFAEAFBFAFA297A7010C
:103BD00096016AA97BA98CA99DA90E945C67AA96F7
:103BE0006CAF7DAF8EAF9FAFAA97A50194016EA970
:103BF0007FA988AD99AD0E945C679B01AC01AA9634
:103C00006CAD7DAD8EAD9FADAA970E94F86AAA9665
:103C10006CAF7DAF8EAF9FAFAA97A50194016AA943
:103C20007BA98CA99DA90E945C674B015C01A7013F
:103C300096016EA97FA988AD99AD0E945C679B0132
:103C4000AC01C501B4010E94F76AAA962CAD3DAD46
:103C50004EAD5FADAA970E946B6B6B017C0120E0BB
:103C600030E0A9010E94F76687FF0AC02BED3FE014
:103C700049EC50E4C701B6010E94F86A6B017C016F
:103C8000112351F02BED3FE049EC50E4C701B601A0
:103C90000E94F76A6B017C0120E030E0A901C701B6
:103CA000B6010E94F766811128C02A962CAD3DAD61
:103CB0004EAD5FAD2A9722966CAD7DAD8EAD9FADBA
:103CC00022970E94F766811118C062962CAD3DAD17
:103CD0004EAD5FAD629726966CAD7DAD8EAD9FAD5E
:103CE00026970E94F766811108C07BEDC72E7FE002
:103CF000D72E79ECE72E70E4F72EA70196016A968D
:103D00006CAD7DAD8EAD9FAD6A970E945C674B0137
:103D10005C0120E030E0A901C301B2010E94F76616
:103D20008823C9F0A5019401C501B4010E945C6714
:103D30004B015C01A3019201C301B2010E945C67C7
:103D40009B01AC01C501B4010E94F86A0E94636D39
:103D50004B015C010DC020E030E0A901C501B401B8
:103D60000E941E6D87FF04C0B7FAB094B7F8B094F4
:103D70002FE632E143E85AE3C501B4010E94F76639
:103D800087FD58CCC501B4010E946D6C0E94416C46
:103D90001B01672B19F422242394312CB10180E0FC
:103DA00090E00E94FB664B015C019B01AC01C701E6
:103DB000B6010E94D46B22966CAF7DAF8EAF9FAFE1
:103DC0002297A5019401C301B2010E94D46B6A96A7
:103DD0006CAF7DAF8EAF9FAF6A97A2962CAD3DAD15
:103DE0004EAD5FADA297A6966CAD7DAD8EAD9FAD8D
:103DF000A6970E94F76AA50194010E94D46BA6962B
:103E00006CAF7DAF8EAF9FAFA69722962CAD3DAD28
:103E10004EAD5FAD2297CA01B9010E945C6720E0F8
:103E200030E040E05FE30E945C679B01AC0160E032
:103E300070E080E89FE30E94F76A62966CAF7DAF06
:103E40008EAF9FAF629766962CAD3DAD4EAD5FAD28
:103E5000669729873A874B875C87A2968CAD9DAD84
:103E6000AEADBFADA2978D879E87AF87B88B6091AF
:103E7000050270910602072E000C880B990B0E9418
:103E8000FD662091000230910102409102025091A2
:103E900003020E945C672AE037ED43E25CE30E9484
:103EA0005C676AA77BA78CA79DA70E94644B9B01B8
:103EB000AC0128533F4F4F4F5F4F66962CAF3DAF3D
:103EC0004EAF5FAF66974AA85BA86CA87DA841E09B
:103ED00050E028965FAF4EAF289759E123965FAF29
:103EE000239728962EAD3FAD28972215330509F468
:103EF00028C10E94794E0E94644BDC01CB0166967A
:103F00002CAD3DAD4EAD5FAD6697821B930BA40B00
:103F1000B50BB7FD10C00E94644B9B01AC01285348
:103F20003F4F4F4F5F4F66962CAF3DAF4EAF5FAFE9
:103F300066970E94284323963FAD239731502396DE
:103F40003FAF2397332309F445C062962CAD3DADB6
:103F50004EAD5FAD62976EA97FA988AD99AD0E9405
:103F60005C676B017C0122962CAD3DAD4EAD5FAD23
:103F70002297B201C3010E945C67A70196010E94CB
:103F8000F86A7B018C0162962CAD3DAD4EAD5FAD04
:103F90006297B201C3010E945C674B015C012296EB
:103FA0002CAD3DAD4EAD5FAD22976EA97FA988AD1A
:103FB00099AD0E945C679B01AC01C501B4010E94F0
:103FC000F76A2B013C01C701D8018EAB9FABA8AFAC
:103FD000B9AF57C028964EAD5FAD2897BA0180E0C3
:103FE00090E00E94FB6622962CAD3DAD4EAD5FADDC
:103FF00022970E945C674B015C010E94D16B6B01B0
:104000007C01C501B4010E94596D4B015C01A701FF
:1040100096016AA97BA98CA99DA90E945C672B01C6
:104020003C01A50194016AAD7BAD8CAD9DAD0E94B4
:104030005C679B01AC01C301B2010E94F86A2B01CD
:104040003C01A50194016AA97BA98CA99DA90E94A4
:104050005C674B015C01A70196016AAD7BAD8CAD3D
:104060009DAD0E945C679B01AC01C501B4010E943B
:10407000F76A6EAB7FAB88AF99AF59E123965FAF1C
:1040800023979201A3012E966CAD7DAD8EAD9FADB1
:104090002E970E94F86A69837A838B839C832EA96A
:1040A0003FA948AD59AD6E966CAD7DAD8EAD9FAD5F
:1040B0006E970E94F86A6D837E838F8398876A96D5
:1040C0002CAD3DAD4EAD5FAD6A9769857A858B8528
:1040D0009C850E94F86A69877A878B879C87A69659
:1040E0002CAD3DAD4EAD5FADA6976D857E858F85C0
:1040F00098890E94F86A6D877E878F87988B809158
:104100000402882321F0CE0101960E944242E090F1
:1041100089021E8A1F8A188E198ECE0146966C015E
:104120008E01065D1F4F9E01235F3F4FAE01475F2B
:104130005F4FBE016B5F7F4F45970E942A4F8111F1
:1041400020C0E09089021EA21FA218A619A6DE01B7
:1041500096966D018E01065D1F4F2CE632E048E613
:1041600052E064E672E080E692E00E942A4F80E12D
:10417000E0E6F2E0ABE6B4E001900D928A95E1F75B
:1041800059CA2896EEADFFAD289731962896FFAF15
:10419000EEAF2897A6CEE1EAF8E184918F010F5F98
:1041A0001F4F882321F00E940941F801F6CFE3E177
:1041B000F2E084918F010F5F1F4F882309F43ACA00
:1041C0000E940941F801F5CF80E50E948B2F8823DA
:1041D00029F00E94D12E6B017C0103C0C12CD12C8F
:1041E000760183E50E948B2F882361F00E94112FB6
:1041F00020E030E04AE754E40E945C670E94416C92
:104200006B017C010E944C460E94644BC60ED71E77
:10421000E81EF91E0E94644BDC01CB018C199D093C
:10422000AE09BF09B7FF06CA0E942843F3CF8091A9
:104230005E048770873069F48FE40E948B2F882397
:1042400019F00E94022F03C08FE40E94442F8111B5
:10425000F1C90E944C468091000290910102A09108
:104260000202B09103028093910290939202A09374
:104270009302B0939402809105029091060290936C
:10428000900280938F0284E690E0909306028093E0
:10429000050201E000935D0488E50E94442FA82EEA
:1042A00089E50E94442FB82E8AE50E94442F182FDA
:1042B000A11004C0B11004C0082705C0B11002C08D
:1042C00000E001C0082F80E1EBE6F4E0A0E6B2E0F8
:1042D00001900D928A95E1F782E50E948B2F882349
:1042E00069F00E94112F6B017C0120E030E0A901F0
:1042F0000E94F766882309F4C1C006C0C12CD12CE6
:1043000050EAE52E50E4F52E011107C0A11005C0BA
:10431000B11003C01111B5C04BC1C0926802D09258
:104320006902E0926A02F0926B024090730450902E
:1043300074046090750470907604A3019201C70123
:10434000B6010E941E6D18160CF098C080916F0483
:1043500090917004A0917104B09172048AAB9BABF0
:10436000ACABBDAB20916B0430916C0440916D04FB
:1043700050916E042EAB3FAB48AF59AF8091000215
:1043800090910102A0910202B09103028AAF9BAF0B
:10439000ACAFBDAFE1E3F2E085909590A590B4900D
:1043A000A7019601C301B2010E94F76687FF12C000
:1043B0008092000290920102A0920202B092030247
:1043C000C0927304D0927404E0927504F092760463
:1043D0000E94782B85E595E5A5E0B3E48093000283
:1043E00090930102A0930202B09303022EA93FA969
:1043F00048AD59AD20936B0430936C0440936D0429
:1044000050936E048AA99BA9ACA9BDA980936F049F
:1044100090937004A0937104B09372040E94782B5F
:10442000A7019601609173047091740480917504E2
:10443000909176040E941E6D181694F480920002EA
:1044400090920102A0920202B0920302C092730401
:10445000D0927404E0927504F09276040E94782B56
:104460000E944C462AAD3BAD4CAD5DAD20930002A1
:10447000309301024093020250930302002309F497
:1044800049CFECE0F5E08491E2E7F2E08590959089
:10449000A590B490682F880F770B880B990B0E941A
:1044A000FD666B017C0120E030E040EC5FE3C5017C
:1044B000B4010E945C67A70196010E945C67AB0192
:1044C000BC0100E010E0980182E00E94332EE6E695
:1044D000F2E02591359145915491C701B6010E94B2
:1044E0005C676B017C0120E030E0A9010E94F76667
:1044F000882309F448C000E010E09801B701A60144
:10450000705882E00E94332EEDE5F2E08491811133
:1045100019C0EBE9F8E184918F010F5F1F4F8823E9
:1045200021F00E940941F801F6CFE9E3F2E084911D
:104530008F010F5F1F4F882321F00E940941F8016E
:10454000F6CF8AE0E1E3F2E085909590A590B490F3
:10455000682F70E080E090E00E94FD669B01AC0156
:10456000C501B4010E94D46B4B015C01A701960107
:10457000C701B6010E94F86AAB01BC019501840134
:1045800082E00E94332E82E00E94E42B0E94132CD2
:104590008091730490917404A0917504B091760495
:1045A0008093680290936902A0936A02B0936B02B1
:1045B0000E94132C80915C0480935D048091910291
:1045C00090919202A0919302B09194028093000284
:1045D00090930102A0930202B093030280918F0294
:1045E00090919002909306028093050280E00E94D1
:1045F000E42B81E00E94E42B73D71CC810928E023A
:1046000019C881E080938E0215C80E94112F2B01DA
:104610003C01133059F0F701E358FD4F20813181FF
:10462000428153810E94F76A2B013C01F701E55951
:10463000FB4F2081318142815381C301B2010E942D
:10464000F76A4B015C012DEB37E346E855EB0E941E
:104650001E6D87FD1BC02DEB37E346E855E3C50112
:10466000B4010E94F76618168CF01F5FB4E0CB0E01
:10467000D11CE4E0EE0EF11C143039F1D1018D9122
:104680001D010E948B2F882381F3BFCF133051F47B
:1046900040927704509278046092790470927A0480
:1046A00001E0E3CFA5019401F6016081718182816F
:1046B00093810E94F86AD6016D937D938D939C93AC
:1046C0001397812F0E94A42BD0CF002311F40C94B8
:1046D000A31320914B0C30914C0C40914D0C5091F8
:1046E0004E0C6091770470917804809179049091D8
:1046F0007A040E945C670E94296D60933A0C709363
:104700003B0C80933C0C90933D0C90912D0C809130
:104710002C0C981721F00E94EF450C94A3130E94D3
:104720004C4680916F0081FB992790F981FF05C06D
:1047300080916F008D7F80936F0040913A0C509173
:104740003B0C60913C0C70913D0C40931B035093CB
:104750001C0360931D0370931E03992311F40C94A2
:10476000A31380916F00826080936F000C94A31359
:104770000E949C5C0C941A1B0E949C5C0C941A1B5B
:104780000E94972F80910402882321F080E692E016
:104790000E94424280913E0C83FDA3C0C0906C02F7
:1047A000D0906D02E0906E02F0906F02209177043D
:1047B000309178044091790450917A04C701B60190
:1047C0000E94F766882309F48CC02091600C309118
:1047D000610C8091EA06811129C080913802909184
:1047E00039022817390714F5C0927704D09278045B
:1047F000E0927904F0927A04EBE9F8E184917F0188
:104800002FEFE21AF20A882321F00E940941F701F2
:10481000F5CFE8EFF1E084917F013FEFE31AF30A6F
:10482000882321F00E940941F701F5CF80906C02A6
:1048300090906D02A0906E02B0906F02209177046C
:10484000309178044091790450917A04C501B40103
:104850000E94F76A6B017C0120E030E0A9010E9410
:104860001E6D87FF04C0F7FAF094F7F8F094E0911A
:10487000890244E0E49FF0011124EC5CFD4F2081AB
:10488000318142815381C701B6010E945C6720E0FB
:1048900030E048E453E40E941E6D181614F580922F
:1048A000770490927804A0927904B0927A04EBE9AC
:1048B000F8E184917F015FEFE51AF50A882321F082
:1048C0000E940941F701F5CFE9EDF1E084917F0104
:1048D0009FEFE91AF90A882321F00E940941F701A4
:1048E000F5CF1092E9066091050270910602072E3D
:1048F000000C880B990B0E94FD66209100023091FC
:10490000010240910202509103020E945C672AE07A
:1049100037ED43E25CE30E945C676EAB7FAB88AF30
:1049200099AF6EA77FA788AB99AB809060029090FB
:104930006102A0906202B090630220916B043091FA
:104940006C0440916D0450916E0422962CAF3DAFE3
:104950004EAF5FAF2297C0906402D0906502E090A6
:104960006602F090670280916F0490917004A091AC
:104970007104B091720426968CAF9DAFAEAFBFAFFD
:10498000269726E031E040E752ECC501B4010E94D1
:104990001E6D87FD1EC026E031E040E752E4C501F0
:1049A000B4010E94F7661816A4F026E031E040E753
:1049B00052ECC701B6010E941E6D87FD0AC026E0B9
:1049C00031E040E752E4C701B6010E94F7661816CD
:1049D00074F411110C941A1B80E1E0E6F2E0ABE6EE
:1049E000B4E001900D928A95E1F70C941A1B209186
:1049F0007304309174044091750450917604609171
:104A000068027091690280916A0290916B020E9423
:104A1000F76A6AAB7BAB8CAB9DAB40906C0250905D
:104A20006D0260906E0270906F0220917704309159
:104A300078044091790450917A042AAF3BAF4CAF8F
:104A40005DAFC301B2010E94F76A2A966CAF7DAFD9
:104A50008EAF9FAF2A97A30192016AAD7BAD8CAD5B
:104A60009DAD0E94F76687FF03C081E08093E90651
:104A700022962CAD3DAD4EAD5FAD2297C501B40180
:104A80000E94F76A2B013C0126962CAD3DAD4EAD40
:104A90005FAD2697C701B6010E94F76A4B015C0122
:104AA000A3019201C301B2010E945C676B017C010A
:104AB000A5019401C501B4010E945C679B01AC0192
:104AC000C701B6010E94F86A6B017C012AA93BA9C3
:104AD0004CA95DA9CA01B9010E945C679B01AC01A8
:104AE000C701B6010E94F86A0E94636D6B017C01E8
:104AF0002EA93FA948AD59AD0E94D46B20E030E00B
:104B00004AEF53E40E945C670E94416C6EAB7FAB3E
:104B100088AF99AF2EA83FA820E030E040E850E4ED
:104B2000C701B6010E945C676B017C01B10180E0A6
:104B300090E00E94FB66A70196010E941E6D181668
:104B40002CF4C701B6010E94416C1B0121143104F1
:104B500019F422242394312CB10180E090E00E94CA
:104B6000FB669B01AC0160E070E080E89FE30E947F
:104B7000D46B6B017C019B01AC01C301B2010E94AB
:104B80005C676E8B7F8B888F998FA7019601C5011B
:104B9000B4010E945C676A8F7B8F8C8F9D8FA70109
:104BA00096016AA97BA98CA99DA90E945C676E8F5A
:104BB0007F8F88A399A3A70196012A966CAD7DAD3E
:104BC0008EAD9FAD2A970E945C676AA37BA38CA3DE
:104BD0009DA380E1EBE6F4E0DE01119601900D92D9
:104BE0008A95E1F74E01B1E18B0E911C31E0231A59
:104BF0003108E9F1AE014A5E5F4F7A018E010F5F25
:104C00001F4FF70121913191419151917F01D801BD
:104C10006D917D918D919C910E94F86AF80161934C
:104C20007193819391938F01E815F90551F7CE01A6
:104C300001960E946A471AA61BA61CA61DA6E09014
:104C400089021EA21FA218A619A69E01265D3F4F2B
:104C500069018E01025D1F4F2450310949E753E07D
:104C600065E773E081E793E00E942A4FBFCF80E6BB
:104C700092E00E946A471AA61BA61CA61DA6E090F9
:104C800089021EA21FA218A619A6CE018A966C013F
:104C90008E01025D1F4F9E012A5D3F4F49E753E0A1
:104CA00065E773E081E793E00E942A4F1092E906DE
:104CB00093CE03D50C941A1B0E94112F0E943C6CBA
:104CC000CB010E94D4420E94112F20E030E040E747
:104CD00051E40E94F76618161CF00E94C43502C009
:104CE0000E948B350E94893E81E0809307022296C4
:104CF0001CAE1DAE1EAE1FAE22976E961CAE1DAE34
:104D00001EAE1FAE6E971AAE2F961FAE2F975CE3A6
:104D100063965FAF63978CE16F968FAF6F9796E462
:104D200067969FAF6797E12CF12C00E81FEB812C71
:104D3000912C54016091600C7091610C072E000C55
:104D4000880B990B0E94FD66362E272E8AAB9EABF0
:104D5000262F372FAC01B701C8010E94F7668823C0
:104D6000E9F020915C0C30915D0C40915E0C50910B
:104D70005F0C632D722D8AA99EA90E94F766881F79
:104D80008827881F8AAF2B96AFAD2B97AA2351F0A7
:104D9000882341F0809107020C941A1B3E2C2F2C83
:104DA0000AAB1EAB0E94644B6B017C01DC01CB01A2
:104DB0006E962CAD3DAD4EAD5FAD6E97821B930BE5
:104DC000A40BB50BB7FD3CC0D701C60188519C4F61
:104DD000AF4FBF4F6E968CAF9DAFAEAFBFAF6E976C
:104DE0000E94564CE7EEF2E084918F010F5F1F4F57
:104DF000882321F00E940941F801F6CF8114910423
:104E0000A104B104B9F0D501C401805F984DAF4F42
:104E1000BF4FBC01CD016C197D098E099F0928EE99
:104E200033E040E050E00E94BC6ACA01B9010E9430
:104E3000794103C08FE30E9409418AE00E94094141
:104E40000E9428430E94644B609382037093830303
:104E500080938403909385036091600C7091610C42
:104E6000072E000C880B990B0E94FD6623966FAFEE
:104E7000239727967FAF27978C019B01AC01632D69
:104E8000722D8AA99EA90E94F76A2B013C0120E09D
:104E900030E0A9010E941E6D87FF04C077FA70946C
:104EA00077F8709481149104A104B10459F420E0BE
:104EB00030E040E85FE3C301B2010E94F76687FF7C
:104EC0000DC00AC020E030E040E450E4C301B2016C
:104ED0000E941E6D181614F4460157019AAD9923CD
:104EE00009F44EC022962CAD3DAD4EAD5FAD22977C
:104EF000211531054105510541F0D701C601821B3D
:104F0000930BA40BB50BB7FD3BC023962FAD239796
:104F100027963FAD2797A8012F966FAD2F976396E1
:104F20007FAD63976F968FAD6F9767969FAD6797CD
:104F30000E94F76A20E030E040EC5FE30E94F766F1
:104F400087FD28CFD701C601805A9541AF4FBF4F8B
:104F500022968CAF9DAFAEAFBFAF229723969FAD89
:104F600023972F969FAF2F972796AFAD27976396DE
:104F7000AFAF63976F960FAF6F9767961FAF679747
:104F800080910702882309F405CF81149104A104BC
:104F9000B10429F4E32CF22C0AA91EA9CBCEB0E16E
:104FA000CB1AB7E2DB0AE108F108C818D908EA0809
:104FB000FB08F7FEEFCEEECF0E944C4688E564D7A3
:104FC000882331F0A59A80915E048E7F80935E04E1
:104FD00089E55AD7882331F0A59A80915E048D7FA8
:104FE00080935E048AE550D7882311F40C941A1B31
:104FF000459A80915E048B7F80935E040C941A1B0B
:105000000E945A470C941A1B0E944C46BC2C60E02C
:105010008C2D0E94294A0F3FBFEF1B0759F48C2D9E
:105020000E94D24931E020E0892B09F030E0032FC3
:10503000122F05C00130110569F000E010E08B2D42
:105040000E94D2498017910711F40C941A1B0E94F8
:105050002843F5CF01E010E0F2CF2C964EAD5FADC6
:105060002C97452B09F476C1EF964CAC5DAC6EAC39
:105070007FACEF97480E591E6A1E7B1EEF962CAD33
:105080003DAD4EAD5FADEF97281B390B4A0B5B0B67
:10509000CA01B9012EA93FA948AD59AD0E94AD6A18
:1050A000A30192010E94D06DD501C401820F931F0C
:1050B000A41FB51F84319105A105B105FCF04C0179
:1050C0005D018C3E9105A105B1052CF05BEE852EAE
:1050D000912CA12CB12C40E884169104A104B104B8
:1050E000DCF08EEF90E0A0E0B0E088199909AA0901
:1050F000BB098EAB9FABA8AFB9AF12C044E1842E01
:10510000912CA12CB12C24E130E040E050E02EABFA
:105110003FAB48AF59AF04C08EAA9FAAA8AEB9AEA4
:10512000E7E2F7E084919F012F5F3F4F8823C1F0B2
:10513000C457DF4F2883CC58D040C357DF4F388344
:10514000CD58D0400E940941C457DF4F2881CC5828
:10515000D040C357DF4F3881CD58D040F901E2CF5E
:10516000C501B4010E947941E2E2F7E084919F0118
:105170002F5F3F4F8823C1F0C457DF4F2883CC589F
:10518000D040C357DF4F3883CD58D0400E940941EB
:10519000C457DF4F2881CC58D040C357DF4F3881E8
:1051A000CD58D040F901E2CF6EA97FA988AD99AD65
:1051B0000E9479416B964FAD6B972F965FAD2F97FD
:1051C00063966FAD63976F967FAD6F978BE197E0B6
:1051D0000E94313E67964FAD6797A3965FADA39748
:1051E000A7966FADA797AB967FADAB9784E197E09D
:1051F0000E94313E2C964EAD5FAD2C974330510549
:105200000CF4A8C06EA97FA988AD99AD0E94FD6677
:1052100020E030E040E850E40E945C676B017C01D4
:105220006B962FAD6B972F963FAD2F9763964FAD33
:1052300063976F965FAD6F9767966FAD6797A3960D
:105240007FADA397A7968FADA797AB969FADAB9772
:105250000E94F76A2BED3FE049E450E40E945C674E
:1052600020E030E040E05FE30E945C679B01AC011E
:10527000C701B6010E94D46B6B017C01C301B2016E
:105280000E94FD662FE632E143E85AE30E945C6724
:105290002B013C01B701A6018EE097E00E94313E50
:1052A000B301A20188E097E00E94313E2AE939E982
:1052B00049E15FE3C701B6010E945C676B017C01B5
:1052C0009B01AC010E94F86AA30192010E94D46B79
:1052D000AF966CAF7DAF8EAF9FAFAF97A30192013A
:1052E000C701B6010E945C6720E030E040E05EE369
:1052F0000E945C67E3966CAF7DAF8EAF9FAFE39784
:10530000E8EFF6E084913F015FEF651A750A8823A4
:1053100021F00E940941F301F5CFB701A60182EF08
:1053200096E00E94313EAF964CAD5DAD6EAD7FAD67
:10533000AF978CEE96E00E94313EE3964CAD5DADAA
:105340006EAD7FADE39786EE96E00E94313E8AE037
:105350000E9409418EA99FA9A8ADB9AD880D991DDC
:10536000AA1DBB1DB595A795979587958093350682
:105370002C968EAD9FAD2C9701962C969FAF8EAF3D
:105380002C979AAD6B969FAF6B97AEAD2F96AFAF44
:105390002F972396BFAD23976396BFAF639727964A
:1053A000EFAD27976F96EFAF6F974AA85BA86CA8F1
:1053B0007DA8F1E0E696FFAFE6970C940519CF566D
:1053C000DF4F0FB6F894DEBF0FBECDBFDF91CF9198
:1053D0001F910F91FF90EF90DF90CF90BF90AF9013
:1053E0009F908F907F906F905F904F903F902F9005
:1053F0000895FF920F931F93CF93DF93FC012081B9
:105400002B3319F1D0912406D430F8F4F62EBC01D8
:10541000C09198020C2F10E0F0E6CF9FC00111243C
:105420008E559B4F0E94156EF801E558FB4FF08298
:10543000CF5FC43018F4C093980202C01092980253
:10544000DF5FD093240681E001C080E0DF91CF913F
:105450001F910F91FF900895EF92FF920F931F936A
:10546000CF93DF931F92CDB7DEB7082F162FECE84E
:10547000FBE084917F012FEFE21AF20A882331F0DA
:1054800099830E940941F7019981F3CFE02FF92F09
:1054900084917F019FEFE91AF90A882321F00E9485
:1054A0000941F701F5CFEAE8FBE084917F012FEF96
:1054B000E21AF20A882321F00E940941F701F5CF90
:1054C000612F70E080E090E00E9479418AE00F90C7
:1054D000DF91CF911F910F91FF90EF900C940941B4
:1054E0004F925F926F927F928F929F92AF92BF92F4
:1054F000CF92DF92EF92FF92CF93DF93E7E8FBE04A
:105500008491EF012196882321F00E940941FE0138
:10551000F7CF20917D0230917E0240917F02509121
:10552000800260916B0470916C0480916D04909185
:105530006E040E94F86A42E00E949341E3E8FBE0B7
:105540008491EF012196882321F00E940941FE01F8
:10555000F7CF2091810230918202409183025091D5
:10556000840260916F047091700480917104909135
:1055700072040E94F86A42E00E949341EFE7FBE068
:105580008491EF012196882321F00E940941FE01B8
:10559000F7CF209185023091860240918702509189
:1055A00088026091730470917404809175049091E5
:1055B00076040E94F86A42E00E949341EBE7FBE028
:1055C0008491EF012196882321F00E940941FE0178
:1055D000F7CF60917704709178048091790490916D
:1055E0007A0442E00E94934180916F0081FB9927E9
:1055F00090F981FF05C080916F008D7F80936F00CF
:1056000040900F03509010036090110370901203AC
:105610008090130390901403A0901503B09016038C
:10562000C0901703D0901803E0901903F0901A036C
:10563000992329F080916F00826080936F00E1E7E9
:10564000FBE08491EF012196882321F00E9409411B
:10565000FE01F7CFC301B2010E947941EDE6FBE004
:105660008491EF012196882321F00E940941FE01D7
:10567000F7CFC501B4010E947941E9E6FBE08491CE
:10568000EF012196882321F00E940941FE01F7CF06
:10569000C701B6010E9479418AE0DF91CF91FF9066
:1056A000EF90DF90CF90BF90AF909F908F907F90C2
:1056B0006F905F904F900C940941CF93DF93E1EA94
:1056C000F8E18491EF012196882321F00E9409419D
:1056D000FE01F7CFEAE5FBE08491EF0121968823F4
:1056E00021F00E940941FE01F7CFDF91CF9108958B
:1056F000CF92DF92EF920F931F93CF93DF9300D05F
:105700001F92CDB7DEB7E090890219821A821B8200
:105710001C82CE0101966C0100E012E027E734E024
:1057200043E754E06FE674E08BE694E00E942A4F72
:105730000F900F900F900F90DF91CF911F910F91CD
:10574000EF90DF90CF9008950F931F93CF93DF9347
:1057500094E0899FE00111248E0103581D4FFE0142
:10576000E15AFB4FDE01A059BD4F2D913D914D9166
:105770005C9160817181828193810E94F86AF80155
:105780006083718382839383FE01EC5CF44F859187
:105790009591A591B491FE01E157FC4F80839183CF
:1057A000A283B383FE01E05CF44F85919591A591AE
:1057B000B491C25EDD4F88839983AA83BB83DF9156
:1057C000CF911F910F910895CF93DF9321E030E0A7
:1057D000082E01C0220F0A94EAF790915E04922BE2
:1057E00090935E0490917C02292B20937C0294E09C
:1057F000899FE0011124FE01E059FD4F10821182C2
:1058000012821382A1DFFE01E052FB4F8591959138
:10581000A591B491C559DB4F88839983AA83BB8333
:10582000DF91CF91089527E734E043E754E06FE636
:1058300074E08BE694E00C945B4680916F0081FBF2
:10584000992790F981FF05C080916F008D7F80932B
:105850006F0080912C0C80932D0C809377068093A1
:10586000D00684E68093EB0628EE33E03093500CAC
:1058700020934F0C992329F080916F0082608093D0
:105880006F0081E080930C030E944C4680E00E94F0
:10589000D9350E94FD662091D1063091D206409103
:1058A000D3065091D4060E945C6760930003709306
:1058B0000103809302039093030381E00E94D93592
:1058C0000E94FD662091D5063091D6064091D706FC
:1058D0005091D8060E945C6760930403709305039F
:1058E000809306039093070382E00E94D9350E94BB
:1058F000FD662091D9063091DA064091DB06509181
:10590000DC060E945C676093080370930903809330
:105910000A0390930B038CE0E0E0F3E0ABE6B4E025
:1059200001900D928A95E1F77ECF8F929F92AF9270
:10593000BF92CF92DF92EF92FF920F931F93CF937C
:10594000DF93CDB7DEB76E970FB6F894DEBF0FBE0C
:10595000CDBF6091990270919A026115710561F154
:105960004DE150E0CE0101967C010E949F661E8EA3
:10597000F7018F010E191F09B190BB2079F19AE050
:10598000B912F7CF2BC0B70183E19AE00E94633EC2
:1059900082E20E9409418AE00E940941BB20A9F1EC
:1059A0000F5F1F4F8091990290919A02080F191F63
:1059B00010939A02009399028091990290919A0211
:1059C000892B09F03DC180912406843008F038C14C
:1059D0000E940442AC0197FF1BC032C1F701E00FE7
:1059E000F11F108260E0C70104DD882329F3EBE991
:1059F000F8E184916F012FEFC21AD20A882309F4CB
:105A0000C2CF0E940941F601F4CF00E010E0D0CFF0
:105A1000982F2091560C3091570C8A3019F09D30F8
:105A200009F0DCC01092FF022115310519F40E9423
:105A3000794EC9CFF901E156FD4F10821092570CF3
:105A40001092560C2FE932E08901F90180812F5F15
:105A50003F4F8032C9F368018E3409F07CC00115D4
:105A6000110509F478C06CE17BE0C8010E94AE66C4
:105A7000FF24F394892B11F4F12C09C06EE470E03B
:105A8000C80104960E94016E009709F06C014AE07B
:105A900050E060E070E0C60101960E9423646093CC
:105AA0009B0270939C0280939D0290939E02809033
:105AB000580C9090590CA0905A0CB0905B0CFFEFD2
:105AC0008F1A9F0AAF0ABF0A681579058A059B05D8
:105AD00029F0F11003C080E29AE02AC06AE270E087
